:020000040800F2
:1000000000500020F90600080D0600080F06000841
:10001000110600081306000815060008000000007D
:1000200000000000000000000000000017060008AB
:1000300019060008000000001B0600081D06000845
:100040004107000841070008410700084107000870
:100050004107000841070008410700084107000860
:100060004107000841070008410700084107000850
:100070004107000841070008410700084107000840
:100080004107000841070008410700084107000830
:100090004107000841070008410700084107000820
:1000A0004107000841070008410700084107000810
:1000B0004107000841070008410700084107000800
:1000C00041070008410700084107000841070008F0
:1000D00041070008410700084107000841070008E0
:1000E0004107000841070008410700080000000020
:1000F0000000000000000000000000000000000000
:0C01000000000000000000005FF808F1A3
:10010C0010B5054C237833B9044B13B10448AFF345
:10011C0000800123237010BD0800002000000000A7
:10012C00D807000808B5034B1BB103490348AFF3CC
:10013C00008008BD000000000C000020D80700085B
:10014C00234A08B5136823F0070343F00103136037
:10015C00136803F00703012BFAD11E4B1A6822F027
:10016C00F80242F080021A601A6842F001021A602A
:10017C001A689107FCD55A6822F47C1242F4E012FA
:10018C005A601A6842F080721A601A689201FCD5A3
:10019C005A6822F0F0025A605A6822F4E0625A60FF
:1001AC005A6822F460525A605A6822F0030242F0F4
:1001BC0002025A605A6802F00C02082AFAD1064868
:1001CC0000F0B9FABDE80840034800F0D5BA00BF0A
:1001DC000020024000100240005125024FF0006147
:1001EC00184BD1F800281340B3F1005F29D1D1F896
:1001FC00040872B603F1005303F504331A6942F490
:10020C00C0221A611A6922F4C0221A61DA6842F417
:10021C00804242F00C02DA60DA6822F4804222F06A
:10022C000C02DA604FF0E02300221A615A619A61E5
:10023C004FF00822C3F8082DD1F8003883F3088852
:10024C00004770470000FE2F044B1A6813689B068A
:10025C00FCD5034B1B681868C0B2704728020020FD
:10026C0024020020044B1B681860044B1A681368A6
:10027C001B06FCD5704700BF300200203402002062
:10028C0008B5FFF7E1FF202804D11420FFF7EAFF9F
:10029C00002008BD0120FCE7014608B50139FFF735
:1002AC00D3FF11F0FF01F9D108BD00001C491D4A14
:1002BC004B6823F0F00343F090034B60536823F436
:1002CC00706343F410635360136823F4704323F09A
:1002DC00F00343F4005343F02003136008235361ED
:1002EC0002231361F1230B610A680F4B02F47F4266
:1002FC0013430B6042F20C0240F271210B4B9960DC
:10030C00DA60A3F574439960DA60C3F80814C3F893
:10031C000C240022C3F81024C3F81424704700BF27
:10032C0000080140000C014028008888003801407A
:10033C0044F20D022DE9F04FA34C85B0A369A349FB
:10034C001343A361A3694FF0000913400393039B6C
:10035C009F4AE369DFF87CB21343E361E36913401E
:10036C000293029BCA689C4B22F4E0621204120CAA
:10037C001343CB60CB68C3F30223C3F107001A1DF0
:10038C00042828BF0420062A88BFDA1E4FF0FF334A
:10039C0003FA00F398BF4A46DB4393401B01DBB2E0
:1003AC0081F82330FFF7CCFEFFF780FF8B4B8C4A94
:1003BC00CBF80030043313608A4A03F57F73136063
:1003CC00894A0433136000F061F9636ADD000AD4D2
:1003DC00962000F0BDF9854B9B6803F0F103F02BE0
:1003EC0001D0FFF7FBFE0027636AB84643F0807329
:1003FC00636201243D467E4BDFF8F8A11C70002C93
:10040C0040F09280B9F1000F09D0754A7A4BCBF8C5
:10041C0000A01360734AC2F800A0734A1360FFF780
:10042C0013FF5528054600F0A58014D8452800F088
:10043C009F8008D8412869D0422800F09580FFF7AA
:10044C001FFF04466EE05128F9D1FFF7C7FE1020BC
:10045C00FFF708FFD6E7742800F09D8049D856288E
:10046C0000F091806428EAD1FFF7EEFE0602FFF758
:10047C00EBFEB6B20643FFF7E7FE604BB6B234466E
:10048C0019460093FFF7E0FE013C009BA4B203F871
:10049C00010B002CF5D1F20748BFFF2206F1FF3308
:1004AC009BB203F1010348BFCA54FFF7E9FEA7F55D
:1004BC000063B3F5FC3F044634D207F10063C3F389
:1004CC00090222B91846009300F0F0F8009B01369F
:1004DC004A4AC6F34E062EB332F8021B1846019256
:1004EC00009300F0B7F8009B013E019A0233B6B2BC
:1004FC00F1E77528A3D1FFF7C3FE04461E20FFF7D2
:10050C00B1FE5520FFF7AEFEAA2009E0FFF79CFED6
:10051C008046FFF7B5FEB8F1820F04461ED10520C8
:10052C00FFF7A0FE002C92D02C4B1A68900648BF07
:10053C005D68DAF8003044BFEDB24FF0000999065F
:10054C0041BF264B4FF001095D68EDB2B8F1300F99
:10055C0002D1202D3FF456AFA84650E7B8F1810FD9
:10056C000CBF04200320DBE71420FFF795FE66E7A1
:10057C000520FAE7FFF768FE0746FFF765FE47EA36
:10058C0000277F005BE70420FFF786FEFFF778FE6D
:10059C0004460020C4E7FFF757FE0102FFF754FEA4
:1005AC0089B20143FFF750FEFFF76AFE044607F1DC
:1005BC00006689B20139307889B2FFF753FE0136F3
:1005CC000029F7D1AEE700BF0010024000ED00E0BB
:1005DC0000000610280200200003FA050044004029
:1005EC0024020020340200203002002000080140C8
:1005FC002C02002000380140043801402400002067
:10060C00FEE7FEE7FEE7FEE7FEE770477047704740
:10061C00084B1B7863B1084B1A7832B90749CA6882
:10062C0082F00202CA6032221A701A78013A1A70E9
:10063C00704700BF2C020020000000200008014081
:10064C00034AD368DB0700D4704700BFF9E700BF4B
:10065C000020024010B50C4CFFF7F2FF236943F069
:10066C00010323610180FFF7EBFFE3689B0641BFA9
:10067C00E368002043F02003E36049BF23690120B5
:10068C0023F00103236110BD00200240054B002024
:10069C001A69120641BF044A5A6002F188325A6044
:1006AC00704700BF00200240230167450D4908B583
:1006BC000B6943F002030B6148610B6943F0400383
:1006CC000B61FFF7BDFFCB689B0641BFCB680020D9
:1006DC0043F02003CB6049BF0B69012023F00203D8
:1006EC000B6108BD0020024070470000FFF7FCFFC3
:1006FC000B480C490C4A002302E0D458C450043374
:10070C00C4188C42F9D3094A094C002301E0136048
:10071C000432A242FBD300F035F8FFF709FE704714
:10072C000000002008000020F80700080800002046
:10073C0038020020FEE74FF47A73B0FBF3F000228E
:10074C004FF0E023013858619A6105221A61704715
:10075C004FF0E0231B6982B00193019B4FF0E02323
:10076C00411C18BF013008B902B070471A69D20396
:10077C0048BF00F1FF30F6E7014B1860704700BF2F
:10078C000400002070B500260C4D0D4C641BA41009
:10079C00A64209D100F01AF800260A4D0A4C641B37
:1007AC00A410A64205D170BD55F8043B98470136FC
:1007BC00EEE755F8043B98470136F2E7F0070008DE
:1007CC00F0070008F0070008F4070008F8B500BFB0
:1007DC00F8BC08BC9E467047F8B500BFF8BC08BC16
:0407EC009E4670476E
:0407F00031010008CB
:0407F4000D010008EB
:0807F800320000000024F400AF
:04000005080006F9F0
:00000001FF
