:020000040800F2
:1000000000500020E9060008FD050008FF05000873
:1000100001060008030600080506000800000000AD
:1000200000000000000000000000000007060008BB
:1000300009060008000000000B0600080D06000875
:1000400031070008310700083107000831070008B0
:1000500031070008310700083107000831070008A0
:100060003107000831070008310700083107000890
:100070003107000831070008310700083107000880
:100080003107000831070008310700083107000870
:100090003107000831070008310700083107000860
:1000A0003107000831070008310700083107000850
:1000B0003107000831070008310700083107000840
:1000C0003107000831070008310700083107000830
:1000D0003107000831070008310700083107000820
:1000E0003107000831070008310700080000000050
:1000F0000000000000000000000000000000000000
:0C01000000000000000000005FF808F1A3
:10010C0010B5054C237833B9044B13B10448AFF345
:10011C0000800123237010BD0800002000000000A7
:10012C00C807000808B5034B1BB103490348AFF3DC
:10013C00008008BD000000000C000020C80700086B
:10014C00234A08B5136823F0070343F00103136037
:10015C00136803F00703012BFAD11E4B1A6822F027
:10016C00F80242F080021A601A6842F001021A602A
:10017C001A689107FCD55A6822F47C1242F4E012FA
:10018C005A601A6842F080721A601A689201FCD5A3
:10019C005A6822F0F0025A605A6822F4E0625A60FF
:1001AC005A6822F460525A605A6822F0030242F0F4
:1001BC0002025A605A6802F00C02082AFAD1064868
:1001CC0000F0B1FABDE80840034800F0CDBA00BF1A
:1001DC000020024000100240005125024FF0006147
:1001EC00184BD1F800281340B3F1005F29D1D1F896
:1001FC00040872B603F1005303F504331A6942F490
:10020C00C0221A611A6922F4C0221A61DA6842F417
:10021C00804242F00C02DA60DA6822F4804222F06A
:10022C000C02DA604FF0E02300221A615A619A61E5
:10023C004FF00822C3F8082DD1F8003883F3088852
:10024C00004770470000FE2F044B1A6813689B068A
:10025C00FCD5034B1B681868C0B2704728020020FD
:10026C0024020020044B1A6813681B06FCD5034BB0
:10027C001B681860704700BF340200203002002059
:10028C0008B5FFF7E1FF202804D11420FFF7EAFF9F
:10029C00002008BD0120FCE7014608B50139FFF735
:1002AC00D3FF11F0FF01F9D108BD00001C491D4A14
:1002BC004B6823F0F00343F090034B60536823F436
:1002CC00706343F410635360136823F4704323F09A
:1002DC00F00343F4005343F02003136008235361ED
:1002EC0002231361F1230B610A680F4B02F47F4266
:1002FC0013430B6042F20C0240F271210B4B9960DC
:10030C00DA60A3F574439960DA60C3F80814C3F893
:10031C000C240022C3F81024C3F81424704700BF27
:10032C0000080140000C014028008888003801407A
:10033C0044F20D022DE9F04F9C4C85B0A3699C4909
:10034C001343A361A3694FF0000913400393039B6C
:10035C00984AE3691343E361E36913400293029BF8
:10036C00CA68954B22F4E0621204120C1343CB6062
:10037C00CB68C3F30223C3F107001A1D042828BF5E
:10038C000420062A88BFDA1E4FF0FF3303FA00F36D
:10039C0098BF4A46DB4393401B01DBB281F8233004
:1003AC00FFF7CEFEFFF782FF00F068F9626A636A1E
:1003BC0043F080736362D4000AD5962000F0C0F934
:1003CC007E4B9B6803F0F103F02B01D0FFF706FF87
:1003DC0000270124B8463D46794BDFF8E8A1DFF849
:1003EC00E8B11C7014BBB9F1000F39D15846774BEA
:1003FC007749784A784C2360784B1860784B1960B1
:10040C00784B1A60FFF720FF5628054600F0A380B2
:10041C0036D8452800F09D8027D841287CD042282A
:10042C0000F09380FFF72CFF044681E0674B1A68BD
:10043C00900648BF5D686C4B48BFEDB21B6848BF67
:10044C004FF00009990641BF604B4FF001095D6800
:10045C00EDB2B8F1300F01D1202DC4D0A846C1E7C0
:10046C00614B504619465246C4E75528DAD1FFF77E
:10047C00EBFE0746FFF7E8FE47EA00277F00D1E7CF
:10048C00742870D0752800F086806428CAD1FFF7D4
:10049C00DBFE0602FFF7D8FEB6B20643FFF7D4FE2A
:1004AC00524BB6B2344619460093FFF7CDFE013CD1
:1004BC00009BA4B203F8010B002CF5D1F20748BF46
:1004CC00FF2206F1FF339BB203F1010348BFCA546C
:1004DC00FFF7D6FEA7F50063B3F5FC3F044627D221
:1004EC0007F10063C3F3090222B91846009300F028
:1004FC00D5F8009B01363D4AC6F34E06C6B132F81C
:10050C00021B18460192009300F09CF8009B013EE0
:10051C00019A0233B6B2F1E7FFF796FE8046FFF779
:10052C00AFFEB8F1820F044609D10520FFF79AFE01
:10053C00002C7FF47BAF1020FFF794FE53E7B8F14B
:10054C00810F0CBF04200320F0E71420FFF7A4FE5A
:10055C0068E70520FAE70420FFF79EFEFFF790FE00
:10056C0004460020E2E7FFF76FFE0102FFF76CFE86
:10057C0089B20143FFF768FEFFF782FE044607F1DC
:10058C00006689B20139307889B2FFF76BFE01360B
:10059C000029F7D1CCE7FFF773FE04461E20FFF7C6
:1005AC0061FE5520FFF75EFEAA20BFE70010024057
:1005BC0000ED00E0000006100003FA050008014001
:1005CC002C02002004380140044400400044004048
:1005DC00004800400448004028020020240200206B
:1005EC00340200203002002000380140240000209A
:1005FC00FEE7FEE7FEE7FEE7FEE770477047704751
:10060C00084B1B7863B1084B1A7832B90749CA6892
:10061C0082F00202CA6032221A701A78013A1A70F9
:10062C00704700BF2C020020000000200008014091
:10063C00034AD368DB0700D4704700BFF9E700BF5B
:10064C000020024010B50C4CFFF7F2FF236943F079
:10065C00010323610180FFF7EBFFE3689B0641BFB9
:10066C00E368002043F02003E36049BF23690120C5
:10067C0023F00103236110BD00200240054B002034
:10068C001A69120641BF044A5A6002F188325A6054
:10069C00704700BF00200240230167450D4908B593
:1006AC000B6943F002030B6148610B6943F0400393
:1006BC000B61FFF7BDFFCB689B0641BFCB680020E9
:1006CC0043F02003CB6049BF0B69012023F00203E8
:1006DC000B6108BD0020024070470000FFF7FCFFD3
:1006EC000B480C490C4A002302E0D458C450043384
:1006FC00C4188C42F9D3094A094C002301E0136059
:10070C000432A242FBD300F035F8FFF711FE70471C
:10071C000000002008000020E80700080800002066
:10072C0038020020FEE74FF47A73B0FBF3F000229E
:10073C004FF0E023013858619A6105221A61704725
:10074C004FF0E0231B6982B00193019B4FF0E02333
:10075C00411C18BF013008B902B070471A69D203A6
:10076C0048BF00F1FF30F6E7014B1860704700BF3F
:10077C000400002070B500260C4D0D4C641BA41019
:10078C00A64209D100F01AF800260A4D0A4C641B47
:10079C00A410A64205D170BD55F8043B984701360C
:1007AC00EEE755F8043B98470136F2E7E0070008FE
:1007BC00E0070008E0070008E4070008F8B500BFF0
:1007CC00F8BC08BC9E467047F8B500BFF8BC08BC26
:0407DC009E4670477E
:0407E00031010008DB
:0407E4000D010008FB
:0807E800320000000024F400BF
:04000005080006E900
:00000001FF
