:020000040800F2
:1000000000500020210900081D0800081F080008F2
:100010002108000823080008250800080000000047
:100020000000000000000000000000002708000899
:1000300029080008000000002B0800082D0800080F
:1000400069090008690900086909000869090008C8
:1000500069090008690900086909000869090008B8
:1000600069090008690900086909000869090008A8
:100070006909000869090008690900086909000898
:100080006909000869090008690900086909000888
:100090006909000869090008690900086909000878
:1000A0006909000869090008690900086909000868
:1000B0003108000869090008690900086909000891
:1000C0006909000869090008690900086909000848
:1000D0006909000869090008690900086909000838
:1000E00069090008690900086909000800000000A2
:1000F0000000000000000000000000000000000000
:0C01000000000000000000005FF808F1A3
:10010C0010B5054C237833B9044B13B10448AFF345
:10011C0000800123237010BD0800002000000000A7
:10012C00740E000808B5034B1BB103490348AFF329
:10013C00008008BD000000000C000020740E0008B8
:10014C00054B82B0DA690243DA61DB690340019343
:10015C00019B02B0704700BF00100240054B82B0FB
:10016C009A6902439A619B6903400193019B02B017
:10017C00704700BF0010024000F00700C0F10702FA
:10018C00031D042A28BF0422062B4FF0FF3398BF0F
:10019C00002003FA02F388BF033821EA030101FAB5
:1001AC0000F07047214A08B5136823F0070343F0A9
:1001BC0002031360136803F00703022BFAD11C4BE4
:1001CC001A6842F480321A601A689103FCD55A6896
:1001DC0022F47C1242F4E8125A601A6842F08072DF
:1001EC001A601A689201FCD55A6822F0F0025A6023
:1001FC005A6822F4E06242F480625A605A6822F42F
:10020C0060525A605A6822F0030242F002025A60AD
:10021C005A6802F00C02082AFAD1064800F0D0FD08
:10022C00BDE80840034800F0EDBD00BF00200240CF
:10023C000010024000A24A0470B51A4C1A4B2268F6
:10024C001340B3F1005F2CD1656872B6174800F00B
:10025C0033FD174800F030FD164800F02DFD4FF02F
:10026C008052154BC3F88020BFF34F8FBFF36F8FB5
:10027C004FF0804000F0A8FC104800F071FB1048D3
:10028C0000F06EFB4FF0E02300221A615A619A6174
:10029C00C3F8084D236883F308882B46BDE87040EB
:1002AC00184770BD001000080000FE2F00380140F8
:1002BC00004400400048004000E100E0000801401C
:1002CC00000C0140074B1B7833B1074B1A689106A1
:1002DC00FCD55868C0B27047044B1A689206FCD51E
:1002EC00F7E700BF24020020003801400044004022
:1002FC00064B1B782BB1064B1A681106FCD55860BF
:10030C007047044B1A681206FCD5F8E7240200204B
:10031C00003801400048004008B5FFF7D3FF202803
:10032C0004D11420FFF7E4FF002008BD0120FCE7F6
:10033C0010B50446013CFFF7C5FF14F0FF04F9D1DA
:10034C0010BD00002DE9F04F01208FB0DFF82C8399
:10035C00FFF704FF4FF08050FFF7F2FED8F80C20A7
:10036C00C74B22F4E0621204120C1343C8F80C3091
:10037C00D8F80C000F21C0F30220FFF7FDFE00247B
:10038C000001C0B288F82300FFF70CFF20200B946B
:10039C00FFF7E4FE0420FFF7E1FE4FF0020A08200D
:1003AC00FFF7DCFE4FF0010940F20223B54DB64FCA
:1003BC000646C5F810A007A93861C7F814A028464E
:1003CC00CDE90739CDE909A400F01AFB4FF2F0038F
:1003DC0007A92846CDE90736CDF82C9000F010FB84
:1003EC0040F60A2307A93846CDE90739CDE909A417
:1003FC0000F006FB1422214607A800F009FD484630
:10040C00FFF79EFED8F80C000A21C0F30220FFF77C
:10041C00B3FE4FF080529D4B0001C0B283F81C0319
:10042C001A604723ADF81C304CF24F3307A94FF03C
:10043C008040CDE90934089400F006FC4FF080436D
:10044C001A684FF0090B42F080021A609A684FF05C
:10045C00030A22F4804222F007029A605A684FF095
:10046C00040822F070025A609A68214622F0800239
:10047C009A606FF001021A61DA6842EA0902DA60E6
:10048C001C220DEB020000F0C3FC4FF480400694DC
:10049C00FFF764FE0420FFF761FE7D4B0DEB0601B8
:1004AC002846CDE9023BCDE904A400F0A9FA794B2A
:1004BC000DEB06012846CDE9023800F0A1FA0C221A
:1004CC004FF46149CDE90B24734A07A91046CDE9D5
:1004DC000794CDE909440D9400F020FC6E4A116993
:1004EC0021F490411161516921F02A015161D168C7
:1004FC0041F40051D1601C2221460DEB020000F0AA
:10050C0087FC4FF400300694FFF71AFE4046FFF7C5
:10051C0025FE40F204420DEB06012846CDE9022BE4
:10052C00CDE904A400F06CFA40F608020DEB0601CC
:10053C002846CDE9022800F063FA584A07A910466C
:10054C00CDE90794CDE90944CDE90B840D9400F075
:10055C00E5FB524A116921F490411161516921F076
:10056C002A015161D16841F40051D1601C2221460D
:10057C000DEB020000F04CFC4FF480200694FFF7CA
:10058C00DFFD3046FFF7EAFD424B0DEB0601384626
:10059C00CDE9023BCDE904A400F032FA404B0DEB5F
:1005AC0006013846CDE9023800F02AFACDE9079465
:1005BC00CDE90944CDE90B640D943A4C07A92046CA
:1005CC0000F0ACFB236923F490432361636923F0AF
:1005DC002A036361E36843F40053E36000F068F9B5
:1005EC00314B596A5A6ACC0042F080725A6209D572
:1005FC00962000F0F2FBAB6803F0F103F02B01D076
:10060C00FFF71AFE00274FF080420124B8463D4602
:10061C001368DFF8889043F00103DFF87CA01360C7
:10062C00D4B1D9F80030980605D50022D9F8045079
:10063C001E4BEDB21A70DAF80030990605D501227E
:10064C00DAF80450194BEDB21A70B8F1300F40F0D3
:10065C008C80202D40F08980FFF734FE562805460B
:10066C0000F0A48035D8452800F09E8024D841287D
:10067C007DD0422800F094801AE000BF00ED00E02D
:10068C000003FA0500080140000C014000E100E005
:10069C00020002040400040400380140004400403D
:1006AC00080008040048004000100240240200200A
:1006BC00FFF732FE044666E05528F9D1FFF702FE3B
:1006CC000746FFF7FFFD47EA0027BFB27F00BFB226
:1006DC00EEE7742872D0752800F08C806428E7D17E
:1006EC00FFF7F0FD0602FFF7EDFDB6B20643FFF78C
:1006FC00E9FD464AB6B2B34614460192FFF7E2FD55
:10070C00019A0BF1FF331FFA83FB02F8010BBBF1CB
:10071C00000FF2D1F20748BFFF2206F1FF339BB264
:10072C0003F1010348BFE254FFF7F6FDA7F5805330
:10073C00B3F5F83F044626D207F1006BCBF3090260
:10074C0012B9584600F0C6F80136304AC6F34E06C8
:10075C00CEB132F8021B5846013E01920BF1020B4E
:10076C0000F088F8B6B2019AF2E7A84658E7FFF70E
:10077C00A9FD8046FFF7D0FDB8F1820F044609D1E0
:10078C000520FFF7B5FD002C7FF44BAF1020FFF7D1
:10079C00AFFD61E7B8F1810F0CBF04200320F0E737
:1007AC001420FFF7C5FD83E70520FAE70420FFF7C7
:1007BC00BFFDFFF7B1FD04460020E2E7FFF782FD25
:1007CC000602FFF77FFDB6B20643FFF77BFDFFF78E
:1007DC00A3FD0446B6B23E4407F1006BB6B25A46CE
:1007EC000BF1010B1078FFF783FD1FFA8BF2964289
:1007FC00F5D1C8E7FFF790FD04461E20FFF778FD02
:10080C005520FFF775FDAA20BBE700BF2400002090
:10081C00FEE7FEE7FEE7FEE7FEE77047704770472E
:10082C00704700004FF080436FF0010209491A61D4
:10083C000B785BB90848C3681A04DB4302F4003236
:10084C0003F002031343036104230B700B78013B89
:10085C000B707047000000200008014010B5044CDC
:10086C00E368DB0700D410BD012000F0B6FAF7E70F
:10087C000020024070B505460E460C4CFFF7EEFF0B
:10088C00236943F0010323612E80FFF7E7FFE36840
:10089C009B0641BFE368002043F02003E36049BF9F
:1008AC002369012023F00103236170BD0020024065
:1008BC0008B5FFF7D3FF054B00201A69120641BF9C
:1008CC00034A5A6002F188325A6008BD0020024087
:1008DC002301674510B50D4C236943F002032361D6
:1008EC006061236943F040032361FFF7B7FFE368BE
:1008FC009B0641BFE368002043F02003E36049BF3F
:10090C002369012023F00203236110BD0020024063
:10091C0070470000FFF7FCFF0B480C490C4A002302
:10092C0002E0D458C4500433C4188C42F9D3094A99
:10093C00094C002301E013600432A242FBD300F007
:10094C006FFAFFF7FFFC7047000000200800002042
:10095C00AC0E00080800002028020020FEE7000072
:10096C00224B98420BD103F58433DA6842F004022F
:10097C00DA60DA6822F004020020DA6070471C4B5F
:10098C00984209D103F58233DA6842F00802DA6042
:10099C00DA6822F00802EFE7164B984209D103F50A
:1009AC008033DA6842F01002DA60DA6822F0100262
:1009BC00E2E7114B984209D103F57C43DA6842F027
:1009CC002002DA60DA6822F02002D5E70B4B98425D
:1009DC0009D103F57843DA6842F04002DA60DA684C
:1009EC0022F04002C8E70120704700BF0008014018
:1009FC00000C01400010014000140140001801409F
:100A0C002DE9F04F0D680446C5F30F2595FAA5F2B4
:100A1C000326B2FA82F204274FF0011C40F2011EA9
:100A2C0035FA02F001D1BDE8F08F012393402B423F
:100A3C006AD0072A88BFA2F10803D1F804A08ABFA4
:100A4C000CFA03F30EFA02F343F08063BAF1080FC9
:100A5C000ED1E0684FEA132898FAA8F9B9FA89F987
:100A6C0020EA0808086900FA09F048EA0000E0608A
:100A7C004FEA136893FAA3F9B9FA89F993FAA3FB2D
:100A8C000F20BBFA8BFB4FEA890900FA09F954F8DD
:100A9C0008004FEA8B0B20EA09090AFA0BFA49EA1B
:100AAC000A0A44F808A0486820F0080001282BD155
:100ABC0093FAA3F9B9FA89F993FAA3F0B0FA80F092
:100ACC004FEA890906FA09F92AEA09094FEA800A64
:100ADC00886800FA0AF049EA000044F8080093FA22
:100AEC00A3F9B9FA89F993FAA3F3B3FA83F34FEAAA
:100AFC00890907FA09F920EA0909C8689B00984096
:100B0C0049EA000044F80800013289E7034B044A23
:100B1C005B68C3F30313D35CD840704700100240EA
:100B2C008C0E0008034B044A5B68C3F30223D35CAE
:100B3C00D8407047001002409C0E0008034B044A3A
:100B4C005B68C3F3C223D35CD840704700100240EB
:100B5C009C0E0008094A5368DB0341BF53680848E0
:100B6C00C3F34043013348BFB0FBF3F0536858BFA5
:100B7C000448C3F3834302335843704700100240C8
:100B8C0000127A0000093D00044B5B6803F00C0373
:100B9C00082B01D1FFF7DEBF01487047001002405F
:100BAC0000127A0010B50146FFF7EEFF0860FFF760
:100BBC00ADFF48600446FFF7B5FF88602046FFF79D
:100BCC00BDFFC86010BD0000B0F1804F09D11A4BB9
:100BDC001A6942F001021A611A6922F001021A61C3
:100BEC000CE0164B98420BD103F56443DA6842F4DF
:100BFC000062DA60DA6822F40062DA600020704782
:100C0C000F4B984209D103F503331A6942F00202E3
:100C1C001A611A6922F00202E1E70A4B984209D1E3
:100C2C0003F502331A6942F004021A611A6922F0C0
:100C3C000402D4E70120704700100240002C014050
:100C4C0000040040000800401A4A036890420AD091
:100C5C00B0F1804F07D0A2F59432904203D002F548
:100C6C008062904215D14A6823F070031343114AF5
:100C7C0090420AD0B0F1804F07D0A2F59432904246
:100C8C0003D002F58062904203D1CA6823F440730A
:100C9C00134303608B68C3620B888362054B9842D5
:100CAC0004BF0B690363436943F0010343610020F4
:100CBC00704700BF002C0140154B98420BD103F537
:100CCC005843DA6842F48042DA60DA6822F48042EF
:100CDC00DA60002070470F4B98420AD103F5E633D7
:100CEC001A6942F400321A611A6922F400321A614C
:100CFC00EFE7094B984209D103F5E4331A6942F442
:100D0C0080221A611A6922F48022F0E701207047D0
:100D1C0000380140004400400048004030B5C36832
:100D2C0004469B040D4685B002D5012005B030BDAC
:100D3C004B68C968C2680B43296922F4B0520B4353
:100D4C0022F00C021343C3600369AA6823F44053D6
:100D5C001343036143696A6923F44073134343618A
:100D6C006846FFF71FFF134B9C4219D1039B002BC6
:100D7C00DBD02A68002AD8D019214B439200B3FB50
:100D8C00F2F36422B3FBF2F102FB11331B01323399
:100D9C00B3FBF2F303EB01139BB20020A360C5E796
:100DAC00054B9C4201D1029BE1E7044B9C42BCD118
:100DBC00F9E700BF00380140004400400048004003
:100DCC004FF47A73B0FBF3F000224FF0E0230138BC
:100DDC0058619A6105221A6170474FF0E0231B6934
:100DEC0082B00193019B4FF0E023411C18BF0130EE
:100DFC0008B902B070471A69D20348BF00F1FF303E
:100E0C00F6E70000014B1860704700BF040000209B
:100E1C0003460244934200D1704703F8011BF9E7E3
:100E2C0070B500260C4D0D4C641BA410A64209D1C4
:100E3C0000F01AF800260A4D0A4C641BA410A642B6
:100E4C0005D170BD55F8043B98470136EEE755F8CF
:100E5C00043B98470136F2E7A40E0008A40E0008E4
:100E6C00A40E0008A80E0008F8B500BFF8BC08BC1A
:100E7C009E467047F8B500BFF8BC08BC9E4670474C
:100E8C00000000000000000001020304060708092E
:080E9C00000000000102030444
:040EA4003101000810
:040EA8000D01000830
:080EAC00040000000024F40022
:0400000508000921C5
:00000001FF
