:020000040800F2
:1000000000500020E5060008F9050008FB0500087F
:10001000FD050008FF0500080106000800000000BB
:1000200000000000000000000000000003060008BF
:100030000506000800000000070600080906000881
:100040002D0700082D0700082D0700082D070008C0
:100050002D0700082D0700082D0700082D070008B0
:100060002D0700082D0700082D0700082D070008A0
:100070002D0700082D0700082D0700082D07000890
:100080002D0700082D0700082D0700082D07000880
:100090002D0700082D0700082D0700082D07000870
:1000A0002D0700082D0700082D0700082D07000860
:1000B0002D0700082D0700082D0700082D07000850
:1000C0002D0700082D0700082D0700082D07000840
:1000D0002D0700082D0700082D0700082D07000830
:1000E0002D0700082D0700082D070008000000005C
:1000F0000000000000000000000000000000000000
:0C01000000000000000000005FF808F1A3
:10010C0010B5054C237833B9044B13B10448AFF345
:10011C0000800123237010BD0800002000000000A7
:10012C00C407000808B5034B1BB103490348AFF3E0
:10013C00008008BD000000000C000020C40700086F
:10014C00234A08B5136823F0070343F00103136037
:10015C00136803F00703012BFAD11E4B1A6822F027
:10016C00F80242F080021A601A6842F001021A602A
:10017C001A689107FCD55A6822F47C1242F4E012FA
:10018C005A601A6842F080721A601A689201FCD5A3
:10019C005A6822F0F0025A605A6822F4E0625A60FF
:1001AC005A6822F460525A605A6822F0030242F0F4
:1001BC0002025A605A6802F00C02082AFAD1064868
:1001CC0000F0AFFABDE80840034800F0CBBA00BF1E
:1001DC000020024000100240005125024FF0006147
:1001EC00184BD1F800281340B3F1005F29D1D1F896
:1001FC00040872B603F1005303F504331A6942F490
:10020C00C0221A611A6922F4C0221A61DA6842F417
:10021C00804242F00C02DA60DA6822F4804222F06A
:10022C000C02DA604FF0E02300221A615A619A61E5
:10023C004FF00822C3F8082DD1F8003883F3088852
:10024C00004770470000FE2F044B1A6813689B068A
:10025C00FCD5034B1B681868C0B2704728020020FD
:10026C0024020020044B1A6813681B06FCD5034BB0
:10027C001B681860704700BF340200203002002059
:10028C0008B5FFF7E1FF202804D11420FFF7EAFF9F
:10029C00002008BD0120FCE7014608B50139FFF735
:1002AC00D3FF11F0FF01F9D108BD00001C491D4A14
:1002BC004B6823F0F00343F090034B60536823F436
:1002CC00706343F410635360136823F4704323F09A
:1002DC00F00343F4005343F02003136008235361ED
:1002EC0002231361F1230B610A680F4B02F47F4266
:1002FC0013430B6042F20C0240F271210B4B9960DC
:10030C00DA60A3F574439960DA60C3F80814C3F893
:10031C000C240022C3F81024C3F81424704700BF27
:10032C0000080140000C014028008888003801407A
:10033C0044F20D022DE9F04F9E4C85B0A3699E4905
:10034C001343A361A3694FF0000913400393039B6C
:10035C009A4AE369DFF868B21343E361E369134037
:10036C000293029BCA68974B22F4E0621204120CAF
:10037C001343CB60CB68C3F30223C3F107001A1DF0
:10038C00042828BF0420062A88BFDA1E4FF0FF334A
:10039C0003FA00F398BF4A46DB4393401B01DBB2E0
:1003AC0081F82330FFF7CCFEFFF780FF864B874A9E
:1003BC00CBF8003004331360854A03F57F73136068
:1003CC00844A0433136000F057F9636ADD000AD4E1
:1003DC00962000F0B3F9804B9B6803F0F103F02BEF
:1003EC0001D0FFF7FBFE0027636AB84643F0807329
:1003FC00636201243D46794BDFF8E4A11C7004BB19
:10040C00B9F1000F09D0714A764BCBF800A01360FC
:10041C006F4AC2F800A06F4A1360FFF715FF562809
:10042C00054600F09C8030D8452800F0968021D8F5
:10043C00412876D0422800F08C80FFF721FF04463B
:10044C007BE0614B1A68900648BF5D68DAF80030B3
:10045C0044BFEDB24FF00009990641BF5A4B4FF023
:10046C0001095D68EDB2B8F1300F01D1202DC7D074
:10047C00A846C4E75528E0D1FFF7E6FE0746FFF78C
:10048C00E3FE47EA00277F00D7E774286FD0752872
:10049C0000F085806428D0D1FFF7D6FE0602FFF766
:1004AC00D3FEB6B20643FFF7CFFE4F4BB6B234467F
:1004BC0019460093FFF7C8FE013C009BA4B203F859
:1004CC00010B002CF5D1F20748BFFF2206F1FF33D8
:1004DC009BB203F1010348BFCA54FFF7D1FEA7F545
:1004EC000063B3F5FC3F044627D207F10063C3F366
:1004FC00090222B91846009300F0CEF8009B013691
:10050C00394AC6F34E06C6B132F8021B18460192A0
:10051C00009300F095F8009B013E019A0233B6B2AD
:10052C00F1E7FFF791FE8046FFF7AAFEB8F1820FC4
:10053C00044608D10520FFF795FE002C81D1102030
:10054C00FFF790FE5CE7B8F1810F0CBF042003208D
:10055C00F1E71420FFF7A0FE6FE70520FAE704206F
:10056C00FFF79AFEFFF78CFE04460020E3E7FFF747
:10057C006BFE0102FFF768FE89B20143FFF764FED0
:10058C00FFF77EFE044607F1006689B20139307828
:10059C0089B2FFF767FE01360029F7D1CDE7FFF7E7
:1005AC006FFE04461E20FFF75DFE5520FFF75AFE36
:1005BC00AA20C0E70010024000ED00E00000061089
:1005CC00280200200003FA05004400402402002009
:1005DC003402002030020020000801402C020020D0
:1005EC00003801400438014024000020FEE7FEE7FB
:1005FC00FEE7FEE7FEE7704770477047084B1B7835
:10060C0063B1084B1A7832B90749CA6882F0020202
:10061C00CA6032221A701A78013A1A70704700BFF9
:10062C002C0200200000002000080140034AD3687F
:10063C00DB0700D4704700BFF9E700BF0020024081
:10064C0010B50C4CFFF7F2FF236943F00103236153
:10065C000180FFF7EBFFE3689B0641BFE3680020D6
:10066C0043F02003E36049BF2369012023F0010319
:10067C00236110BD00200240054B00201A691206B0
:10068C0041BF044A5A6002F188325A60704700BF79
:10069C0000200240230167450D4908B50B6943F062
:1006AC0002030B6148610B6943F040030B61FFF7D8
:1006BC00BDFFCB689B0641BFCB68002043F02003F5
:1006CC00CB6049BF0B69012023F002030B6108BD0D
:1006DC000020024070470000FFF7FCFF0B480C495C
:1006EC000C4A002302E0D458C4500433C4188C4282
:1006FC00F9D3094A094C002301E013600432A242E9
:10070C00FBD300F035F8FFF713FE70470000002014
:10071C0008000020E4070008080000203802002030
:10072C00FEE74FF47A73B0FBF3F000224FF0E023B6
:10073C00013858619A6105221A6170474FF0E02325
:10074C001B6982B00193019B4FF0E023411C18BF41
:10075C00013008B902B070471A69D20348BF00F1E2
:10076C00FF30F6E7014B1860704700BF0400002013
:10077C0070B500260C4D0D4C641BA410A64209D17B
:10078C0000F01AF800260A4D0A4C641BA410A6426D
:10079C0005D170BD55F8043B98470136EEE755F886
:1007AC00043B98470136F2E7DC070008DC07000839
:1007BC00DC070008E0070008F8B500BFF8BC08BC6F
:1007CC009E467047F8B500BFF8BC08BC9E46704703
:0407DC0031010008DF
:0407E0000D010008FF
:0807E400320000000024F400C3
:04000005080006E504
:00000001FF
